{"abi":[{"type":"constructor","inputs":[{"name":"optimisticOracle_","type":"address","internalType":"address"},{"name":"bondCurrency_","type":"address","internalType":"address"},{"name":"bond_","type":"uint256","internalType":"uint256"},{"name":"assertionLiveness_","type":"uint64","internalType":"uint64"},{"name":"assertionIdentifier_","type":"bytes32","internalType":"bytes32"},{"name":"assertionDomain_","type":"bytes32","internalType":"bytes32"},{"name":"creationFee_","type":"uint256","internalType":"uint256"},{"name":"betFeeBps_","type":"uint256","internalType":"uint256"}],"stateMutability":"nonpayable"},{"type":"function","name":"BPS_DENOMINATOR","inputs":[],"outputs":[{"name":"","type":"uint256","internalType":"uint256"}],"stateMutability":"view"},{"type":"function","name":"CREATOR_FEE_SHARE_BPS","inputs":[],"outputs":[{"name":"","type":"uint256","internalType":"uint256"}],"stateMutability":"view"},{"type":"function","name":"assertionDomain","inputs":[],"outputs":[{"name":"","type":"bytes32","internalType":"bytes32"}],"stateMutability":"view"},{"type":"function","name":"assertionIdentifier","inputs":[],"outputs":[{"name":"","type":"bytes32","internalType":"bytes32"}],"stateMutability":"view"},{"type":"function","name":"assertionLiveness","inputs":[],"outputs":[{"name":"","type":"uint64","internalType":"uint64"}],"stateMutability":"view"},{"type":"function","name":"assertionResolvedCallback","inputs":[{"name":"assertionId","type":"bytes32","internalType":"bytes32"},{"name":"assertedTruthfully","type":"bool","internalType":"bool"}],"outputs":[],"stateMutability":"nonpayable"},{"type":"function","name":"betFeeBps","inputs":[],"outputs":[{"name":"","type":"uint256","internalType":"uint256"}],"stateMutability":"view"},{"type":"function","name":"bond","inputs":[],"outputs":[{"name":"","type":"uint256","internalType":"uint256"}],"stateMutability":"view"},{"type":"function","name":"bondCurrency","inputs":[],"outputs":[{"name":"","type":"address","internalType":"contract IERC20"}],"stateMutability":"view"},{"type":"function","name":"claimCreatorFees","inputs":[],"outputs":[],"stateMutability":"nonpayable"},{"type":"function","name":"confidentialProtocolId","inputs":[],"outputs":[{"name":"","type":"uint256","internalType":"uint256"}],"stateMutability":"view"},{"type":"function","name":"createMarket","inputs":[{"name":"title","type":"string","internalType":"string"},{"name":"question","type":"string","internalType":"string"},{"name":"atomCount","type":"uint16","internalType":"uint16"}],"outputs":[{"name":"marketId","type":"uint256","internalType":"uint256"}],"stateMutability":"payable"},{"type":"function","name":"createTimedMarket","inputs":[{"name":"title","type":"string","internalType":"string"},{"name":"question","type":"string","internalType":"string"},{"name":"atomCount","type":"uint16","internalType":"uint16"},{"name":"tradingEndTime","type":"uint64","internalType":"uint64"},{"name":"eventOccurrenceTime","type":"uint64","internalType":"uint64"},{"name":"resolutionBufferSeconds","type":"uint64","internalType":"uint64"}],"outputs":[{"name":"marketId","type":"uint256","internalType":"uint256"}],"stateMutability":"payable"},{"type":"function","name":"creationFee","inputs":[],"outputs":[{"name":"","type":"uint256","internalType":"uint256"}],"stateMutability":"view"},{"type":"function","name":"getBet","inputs":[{"name":"marketId","type":"uint256","internalType":"uint256"},{"name":"betId","type":"uint256","internalType":"uint256"}],"outputs":[{"name":"bettor","type":"address","internalType":"address"},{"name":"publicStake","type":"uint256","internalType":"uint256"},{"name":"encryptedStakeHandle","type":"bytes32","internalType":"bytes32"},{"name":"encryptedOutcomeMaskHandle","type":"bytes32","internalType":"bytes32"},{"name":"encryptedCareMaskHandle","type":"bytes32","internalType":"bytes32"},{"name":"claimed","type":"bool","internalType":"bool"}],"stateMutability":"view"},{"type":"function","name":"marketCount","inputs":[],"outputs":[{"name":"","type":"uint256","internalType":"uint256"}],"stateMutability":"view"},{"type":"function","name":"marketLifecycle","inputs":[{"name":"marketId","type":"uint256","internalType":"uint256"}],"outputs":[{"name":"tradingEndTime","type":"uint64","internalType":"uint64"},{"name":"eventOccurrenceTime","type":"uint64","internalType":"uint64"},{"name":"resolutionTime","type":"uint64","internalType":"uint64"},{"name":"creationFeePaid","type":"uint256","internalType":"uint256"},{"name":"creatorFeesPaid","type":"bool","internalType":"bool"}],"stateMutability":"view"},{"type":"function","name":"markets","inputs":[{"name":"marketId","type":"uint256","internalType":"uint256"}],"outputs":[{"name":"creator","type":"address","internalType":"address"},{"name":"title","type":"string","internalType":"string"},{"name":"question","type":"string","internalType":"string"},{"name":"atomCount","type":"uint16","internalType":"uint16"},{"name":"materialized","type":"bool","internalType":"bool"},{"name":"resolved","type":"bool","internalType":"bool"},{"name":"outcomeVector","type":"uint16","internalType":"uint16"},{"name":"totalStake","type":"uint256","internalType":"uint256"},{"name":"betCount","type":"uint256","internalType":"uint256"},{"name":"umaAssertionId","type":"bytes32","internalType":"bytes32"},{"name":"tradingEndTime","type":"uint64","internalType":"uint64"},{"name":"eventOccurrenceTime","type":"uint64","internalType":"uint64"},{"name":"resolutionTime","type":"uint64","internalType":"uint64"},{"name":"creationFeePaid","type":"uint256","internalType":"uint256"},{"name":"totalFees","type":"uint256","internalType":"uint256"},{"name":"creatorFeesPaid","type":"bool","internalType":"bool"}],"stateMutability":"view"},{"type":"function","name":"name","inputs":[],"outputs":[{"name":"","type":"string","internalType":"string"}],"stateMutability":"view"},{"type":"function","name":"optimisticOracle","inputs":[],"outputs":[{"name":"","type":"address","internalType":"contract IOptimisticOracleV3"}],"stateMutability":"view"},{"type":"function","name":"pendingCreatorFees","inputs":[{"name":"account","type":"address","internalType":"address"}],"outputs":[{"name":"amount","type":"uint256","internalType":"uint256"}],"stateMutability":"view"},{"type":"function","name":"pendingResolutions","inputs":[{"name":"assertionId","type":"bytes32","internalType":"bytes32"}],"outputs":[{"name":"marketId","type":"uint256","internalType":"uint256"},{"name":"outcomeVector","type":"uint16","internalType":"uint16"},{"name":"exists","type":"bool","internalType":"bool"}],"stateMutability":"view"},{"type":"function","name":"placeBet","inputs":[{"name":"marketId","type":"uint256","internalType":"uint256"},{"name":"encryptedStake","type":"bytes32","internalType":"externalEuint64"},{"name":"encryptedOutcomeMask","type":"bytes32","internalType":"externalEuint16"},{"name":"encryptedCareMask","type":"bytes32","internalType":"externalEuint16"},{"name":"inputProof","type":"bytes","internalType":"bytes"}],"outputs":[{"name":"betId","type":"uint256","internalType":"uint256"}],"stateMutability":"payable"},{"type":"function","name":"proposeUmaResolution","inputs":[{"name":"marketId","type":"uint256","internalType":"uint256"},{"name":"outcomeVector","type":"uint16","internalType":"uint16"},{"name":"claim","type":"string","internalType":"string"}],"outputs":[{"name":"assertionId","type":"bytes32","internalType":"bytes32"}],"stateMutability":"nonpayable"},{"type":"function","name":"settleUmaResolution","inputs":[{"name":"assertionId","type":"bytes32","internalType":"bytes32"}],"outputs":[],"stateMutability":"nonpayable"},{"type":"function","name":"treasury","inputs":[],"outputs":[{"name":"","type":"address","internalType":"address"}],"stateMutability":"view"},{"type":"function","name":"treasuryFeeBalance","inputs":[],"outputs":[{"name":"","type":"uint256","internalType":"uint256"}],"stateMutability":"view"},{"type":"function","name":"version","inputs":[],"outputs":[{"name":"","type":"string","internalType":"string"}],"stateMutability":"view"},{"type":"function","name":"withdrawTreasuryFees","inputs":[{"name":"recipient","type":"address","internalType":"address payable"}],"outputs":[],"stateMutability":"nonpayable"},{"type":"event","name":"BetFeeCollected","inputs":[{"name":"marketId","type":"uint256","indexed":true,"internalType":"uint256"},{"name":"betId","type":"uint256","indexed":true,"internalType":"uint256"},{"name":"fee","type":"uint256","indexed":false,"internalType":"uint256"}],"anonymous":false},{"type":"event","name":"BetPlaced","inputs":[{"name":"marketId","type":"uint256","indexed":true,"internalType":"uint256"},{"name":"betId","type":"uint256","indexed":true,"internalType":"uint256"},{"name":"bettor","type":"address","indexed":true,"internalType":"address"},{"name":"publicStake","type":"uint256","indexed":false,"internalType":"uint256"},{"name":"encryptedStakeHandle","type":"bytes32","indexed":false,"internalType":"bytes32"},{"name":"encryptedOutcomeMaskHandle","type":"bytes32","indexed":false,"internalType":"bytes32"},{"name":"encryptedCareMaskHandle","type":"bytes32","indexed":false,"internalType":"bytes32"}],"anonymous":false},{"type":"event","name":"CreatorFeesClaimable","inputs":[{"name":"marketId","type":"uint256","indexed":true,"internalType":"uint256"},{"name":"creator","type":"address","indexed":true,"internalType":"address"},{"name":"amount","type":"uint256","indexed":false,"internalType":"uint256"}],"anonymous":false},{"type":"event","name":"CreatorFeesPaid","inputs":[{"name":"marketId","type":"uint256","indexed":true,"internalType":"uint256"},{"name":"creator","type":"address","indexed":true,"internalType":"address"},{"name":"amount","type":"uint256","indexed":false,"internalType":"uint256"}],"anonymous":false},{"type":"event","name":"MarketCreated","inputs":[{"name":"marketId","type":"uint256","indexed":true,"internalType":"uint256"},{"name":"creator","type":"address","indexed":true,"internalType":"address"},{"name":"title","type":"string","indexed":false,"internalType":"string"},{"name":"question","type":"string","indexed":false,"internalType":"string"},{"name":"atomCount","type":"uint16","indexed":false,"internalType":"uint16"}],"anonymous":false},{"type":"event","name":"MarketCreationFeePaid","inputs":[{"name":"marketId","type":"uint256","indexed":true,"internalType":"uint256"},{"name":"creator","type":"address","indexed":true,"internalType":"address"},{"name":"amount","type":"uint256","indexed":false,"internalType":"uint256"}],"anonymous":false},{"type":"event","name":"MarketLifecycleConfigured","inputs":[{"name":"marketId","type":"uint256","indexed":true,"internalType":"uint256"},{"name":"tradingEndTime","type":"uint64","indexed":false,"internalType":"uint64"},{"name":"eventOccurrenceTime","type":"uint64","indexed":false,"internalType":"uint64"},{"name":"resolutionTime","type":"uint64","indexed":false,"internalType":"uint64"},{"name":"creationFeePaid","type":"uint256","indexed":false,"internalType":"uint256"}],"anonymous":false},{"type":"event","name":"MarketResolved","inputs":[{"name":"marketId","type":"uint256","indexed":true,"internalType":"uint256"},{"name":"outcomeVector","type":"uint16","indexed":false,"internalType":"uint16"}],"anonymous":false},{"type":"event","name":"TreasuryFeesWithdrawn","inputs":[{"name":"recipient","type":"address","indexed":true,"internalType":"address"},{"name":"amount","type":"uint256","indexed":false,"internalType":"uint256"}],"anonymous":false},{"type":"event","name":"UmaResolutionProposed","inputs":[{"name":"marketId","type":"uint256","indexed":true,"internalType":"uint256"},{"name":"assertionId","type":"bytes32","indexed":true,"internalType":"bytes32"},{"name":"outcomeVector","type":"uint16","indexed":false,"internalType":"uint16"},{"name":"claim","type":"string","indexed":false,"internalType":"string"}],"anonymous":false},{"type":"error","name":"CreationFeeRequired","inputs":[]},{"type":"error","name":"EmptyStake","inputs":[]},{"type":"error","name":"FeeTooHigh","inputs":[]},{"type":"error","name":"InvalidAtomCount","inputs":[]},{"type":"error","name":"InvalidMarket","inputs":[]},{"type":"error","name":"MarketAlreadyResolved","inputs":[]},{"type":"error","name":"MarketNotOpen","inputs":[]},{"type":"error","name":"NoFeesAvailable","inputs":[]},{"type":"error","name":"OnlyOptimisticOracle","inputs":[]},{"type":"error","name":"ResolutionNotReady","inputs":[]},{"type":"error","name":"SafeERC20FailedOperation","inputs":[{"name":"token","type":"address","internalType":"address"}]},{"type":"error","name":"SenderNotAllowedToUseHandle","inputs":[{"name":"handle","type":"bytes32","internalType":"bytes32"},{"name":"sender","type":"address","internalType":"address"}]},{"type":"error","name":"UmaAssertionRejected","inputs":[]},{"type":"error","name":"UnknownAssertion","inputs":[]},{"type":"error","name":"ZamaProtocolUnsupported","inputs":[]}],"bytecode":{"object":"0x6101a06040523461038f57604051601f612df738819003918201601f19168301916001600160401b03831184841017610393578084926101009460405283398101031261038f5761004f816103c6565b9061005c602082016103c6565b604082015160608301516001600160401b038116810361038f5760808401519160a08501519360e060c0870151960151966100956103da565b50466001036102ab576100a66103da565b506100af6103a7565b73ca2e8f1f656cd25c01f05d0b243ab1ecd4a8ffb6815273d82385dada1ae3e969447f20a3164f6213100e7560208201527377627828a55156b04ac0dc0eb30467f1a552bb0360408201525b80517f9e7b61f58c47dc699ac88507c4f5bb9f121c03808c5676a8078fe583e464970080546001600160a01b03199081166001600160a01b039384161790915560208301517f9e7b61f58c47dc699ac88507c4f5bb9f121c03808c5676a8078fe583e4649701805483169184169190911790556040909201517f9e7b61f58c47dc699ac88507c4f5bb9f121c03808c5676a8078fe583e4649702805490931691161790556107d0881161029c576001600160a01b039081166080521660a05260c05260e052610100526101205233610140526101605261018052604051612a0290816103f5823960805181818161018b0152818161161f0152818161187301528181611a870152611c0c015260a051818181611a0301528181611ba901526120a6015260c051818181610f6e0152611967015260e0518181816103bd01526119d40152610100518181816118ae0152611a2f0152610120518181816107340152611a5501526101405181818161054c0152610fb20152610160518181816103390152818161087d015261108c01526101805181818161171901526123590152f35b63cd4e616760e01b5f5260045ffd5b4662aa36a703610316576102bd6103da565b506102c66103a7565b73f0ffdc93b7e186bc2f8cb3daa75d86d1930a433d81527392c920834ec8941d2c77d188936e1f7a6f49c127602082015273be0e383937d564d7ff0bc3b46c51f0bf8d5c311a60408201526100fb565b46617a6903610380576103276103da565b506103306103a7565b7350157cffd6bbfa2dece204a89ec419c23ef5755d815273e3a9105a3a932253a70f126eb1e3b589c643dd24602082015273901f8942346f7ab3a01f6d7613119bca447bb03060408201526100fb565b6373cac13b60e01b5f5260045ffd5b5f80fd5b634e487b7160e01b5f52604160045260245ffd5b60405190606082016001600160401b0381118382101761039357604052565b51906001600160a01b038216820361038f57565b6103e26103a7565b905f82525f60208301525f604083015256fe60c0806040526004361015610012575f80fd5b5f60a0525f3560e01c90816303394db2146120ca575080630484d5421461208757806306fdde031461202857806318a5347f14611d175780631db88499146118d1578063202149191461189757806322302922146118545780632301b83d146117d9578063351fee461461173c5780633eadd53c146117025780633f37bcb214611699578063487f64aa146116045780634dca69661461102057806354fd4d5014610fd657806361d027b314610f9157806364c9ec6f14610f555780636c1c1b2f1461077b5780638927b030146107575780639bb9635e1461071b5780639be7761f146106fc578063a24a27bc146106b1578063a2d169be1461051d578063b1283e77146103e1578063b75d4e241461039b578063c598b2f91461035c578063dce0b4e414610320578063e1a4521814610302578063ec979082146102e25763f1b156b21461015f575f80fd5b346102dc5760403660031901126102dc57600435602435908115918215036102dc576001600160a01b037f00000000000000000000000000000000000000000000000000000000000000001633036102c9578060a051526004602052604060a05120916001604051936101d1856120e4565b8054855201549160ff602085019361ffff8116855260101c1615801560408601526102b65760a051526004602052604060a0512060a0518155600160a0519101556102a3578161029d925160a051526002602052604060a051209161026a61ffff6003850192630100000063ff00000019855416178455511680929065ffff0000000082549160201b169065ffff000000001916179055565b7fafe5903f5c8f201dfd88359d2004cbd4fe4299489366b0e861d96a0c266cc0f66020835192604051908152a251612698565b60a05180f35b63137b7b1360e01b60a05152600460a051fd5b63e1990bd760e01b60a05152600460a051fd5b631ec261a360e11b60a05152600460a051fd5b60a05180fd5b346102dc5760a0513660031901126102dc57602060a05154604051908152f35b346102dc5760a0513660031901126102dc5760206040516127108152f35b346102dc5760a0513660031901126102dc5760206040517f00000000000000000000000000000000000000000000000000000000000000008152f35b346102dc5760203660031901126102dc576004356001600160a01b0381168091036102dc5760a0515260056020526020604060a0512054604051908152f35b346102dc5760a0513660031901126102dc57602060405167ffffffffffffffff7f0000000000000000000000000000000000000000000000000000000000000000168152f35b346102dc5760203660031901126102dc5760043560a05152600260205260a0516040902080546001600160a01b03166001820161041d906121f6565b9161042a600282016121f6565b600382015491600481015460058201546006830154600784015491600885015493600986015495600a015460ff16966040519a8b9a8b5260208b0161020090526102008b016104789161215b565b8a810360408c01526104899161215b565b9761ffff811660608b01528060101c60ff16151560808b01528060181c60ff16151560a08b015260201c61ffff1660c08a015260e089015261010088015261012087015267ffffffffffffffff81166101408701528060401c67ffffffffffffffff1661016087015260801c67ffffffffffffffff166101808601526101a08501526101c084015215156101e08301520390f35b346102dc5760203660031901126102dc576004356001600160a01b0381168091036102dc576001600160a01b037f000000000000000000000000000000000000000000000000000000000000000016330361066c5780156106275760015480156106145760a051600181905580808084865af1610598612328565b50156105cf5760207f6cf9da8175f411fa545f8147392e4847ef10bd52b881fb812f6bc87b8404274291604051908152a260a05180f35b60405162461bcd60e51b815260206004820152600f60248201527f7769746864726177206661696c656400000000000000000000000000000000006044820152606490fd5b63188fc9f360e31b60a05152600460a051fd5b60405162461bcd60e51b815260206004820152601260248201527f726563697069656e7420726571756972656400000000000000000000000000006044820152606490fd5b60405162461bcd60e51b815260206004820152600d60248201527f7472656173757279206f6e6c79000000000000000000000000000000000000006044820152606490fd5b346102dc5760203660031901126102dc5760043560a0515260046020526060604060a0512060ff6001825492015460405192835261ffff8116602084015260101c1615156040820152f35b346102dc5760a0513660031901126102dc576020600154604051908152f35b346102dc5760a0513660031901126102dc5760206040517f00000000000000000000000000000000000000000000000000000000000000008152f35b346102dc5760a0513660031901126102dc576020610773612669565b604051908152f35b60c03660031901126102dc5760043567ffffffffffffffff81116102dc576107a790369060040161217f565b60243567ffffffffffffffff81116102dc576107c790369060040161217f565b906107d06121ad565b9060643567ffffffffffffffff811681036102dc576084359267ffffffffffffffff841684036102dc5760a43567ffffffffffffffff8116908190036102dc574267ffffffffffffffff841611801590610f38575b8015610f30575b610f1d5767ffffffffffffffff8516019267ffffffffffffffff8411610f055767ffffffffffffffff851667ffffffffffffffff85161115610ef257600261ffff8316108015610ee4575b610ed1577f00000000000000000000000000000000000000000000000000000000000000003410610ebe576108ae60a051546122ed565b958660a05155604051986108c18a612100565b338a526108cf368a836122b7565b60208b01526108df3683856122b7565b60408b015261ffff841660608b0152600160808b015260a05160a08b015260a05160c08b015260a05160e08b015260a0516101008b015260a0516101208b015267ffffffffffffffff85166101408b015267ffffffffffffffff87166101608b015267ffffffffffffffff86166101808b0152346101a08b015260a0516101c08b015260a0516101e08b01528760a051526002602052604060a051206080526001600160a01b03808b51161673ffffffffffffffffffffffffffffffffffffffff196080515416176080515560208a015180519067ffffffffffffffff8211610dcc5781906109d3600160805101546121be565b601f8111610e66575b506020906001601f841114610def5760a05192610de4575b50508160011b915f199060031b1c191617600160805101555b60408a0151998a5167ffffffffffffffff8111610dcc57610a33600260805101546121be565b9b601f8d11610d7c575b60209c508c906001601f841114610cd05794610c138c9d95610bf26101e08f9a959787610c209861ffff9a7f3b00b7001e82faf0b4409e432612c0e957f3a812abef601468e10f0b403147d09d60a05192610cc5575b50508160011b915f199060031b1c191617600260805101555b610b2b6003608051018a80606085015116168b19825416178155610aeb60808401511515829062ff0000825491151560101b169062ff00001916179055565b60a0830151815463ff000000191690151560181b63ff0000001617815560c0830151815465ffff000000001916908c1660201b65ffff0000000016179055565b60e081015160046080510155610100810151600560805101556101208101516006608051015560076080510167ffffffffffffffff610140830151168154906fffffffffffffffff000000000000000061016085015160401b169077ffffffffffffffffffffffffffffffffffffffffffffffff1967ffffffffffffffff60801b61018087015160801b16931617171790556101a0810151600860805101556101c08101516009608051015501511515600a608051019060ff801983541691151516179055565b610bfe346001546122fb565b60015560405196606088526060880191612308565b918583038f870152612308565b941660408201528033940390a3604051348152847f64b53a7331c11a429ec4676266ed2e64b88e85a136e6dca667b1493c3d3eda2d883393a367ffffffffffffffff8116610c73575b8584604051908152f35b67ffffffffffffffff608092817fd060f1fe4ea6a4b672c4248a956f7dd2343f17022f3c30166819f94d55bd090a9581604051951685521688840152166040820152346060820152a280838080610c69565b015190505f80610a93565b9060026080510160a051528060a051209160a0515b601f1985168110610d6557508c9d95610bf26101e08f9a959760018861ffff9a7f3b00b7001e82faf0b4409e432612c0e957f3a812abef601468e10f0b403147d09d98610c1398610c209c601f19811610610d4d575b505050811b0160026080510155610aac565b01515f1960f88460031b161c191690555f8080610d3b565b91928f600181928685015181550194019201610ce5565b60026080510160a05152602060a05120601f830160051c810160208410610dc5575b601f8f5b0160051c82018110610db5575050610a3d565b60a0518155600101601f8f610da2565b5080610d9e565b634e487b7160e01b60a051526041600452602460a051fd5b015190508c806109f4565b925060016080510160a051528060a051209060a051935b601f1984168510610e4b576001945083601f19811610610e33575b505050811b0160016080510155610a0d565b01515f1960f88460031b161c191690558c8080610e21565b81810151835560209485019460019093019290910190610e06565b90915060016080510160a05152602060a05120601f840160051c810160208510610eb7575b90849392915b601f830160051c82018110610ea75750506109dc565b60a0518155859450600101610e91565b5080610e8b565b630f5ea3e360e11b60a05152600460a051fd5b639b497f8360e01b60a05152600460a051fd5b50601061ffff831611610877565b639b6997a960e01b60a05152600460a051fd5b634e487b7160e01b60a051526011600452602460a051fd5b63300b4e3360e21b60a05152600460a051fd5b50801561082c565b5067ffffffffffffffff831667ffffffffffffffff861610610825565b346102dc5760a0513660031901126102dc5760206040517f00000000000000000000000000000000000000000000000000000000000000008152f35b346102dc5760a0513660031901126102dc5760206040516001600160a01b037f0000000000000000000000000000000000000000000000000000000000000000168152f35b346102dc5760a0513660031901126102dc576040805161101c91610ffa908261211d565b60018152603160f81b602082015260405191829160208352602083019061215b565b0390f35b60603660031901126102dc5760043567ffffffffffffffff81116102dc5761104c90369060040161217f565b9060243567ffffffffffffffff81116102dc5761106d90369060040161217f565b906110766121ad565b91600261ffff84161080156115f6575b610ed1577f00000000000000000000000000000000000000000000000000000000000000003410610ebe576110bd60a051546122ed565b938460a051556040516110cf81612100565b3381526110dd3688846122b7565b60208201526110ed3684866122b7565b604082015261ffff851660608201526001608082015260a05160a082015260a05160c082015260a05160e082015260a05161010082015260a05161012082015260a05161014082015260a05161016082015260a051610180820152346101a082015260a0516101c082015260a0516101e08201528560a051526002602052604060a05120906001600160a01b03808251161673ffffffffffffffffffffffffffffffffffffffff19835416178255602081015180519067ffffffffffffffff8211610dcc5781906111c160018601546121be565b601f81116115a0575b506020906001601f84111461152d5760a05192611522575b50508160011b915f199060031b1c19161760018301555b604081015180519067ffffffffffffffff8211610dcc5761121d60028501546121be565b601f81116114d4575b50916020999593918997959360a051508b90601f8311600114611423577f3b00b7001e82faf0b4409e432612c0e957f3a812abef601468e10f0b403147d0989794600a6101e061ffff9996866113ca976113d79b97610bf29760a05192611418575b50508160011b915f199060031b1c19161760028501555b6060810151600385018054608084015162ff000090151560101b16928e168e199091161762ff000019169190911781556113139060a0830151815463ff000000191690151560181b63ff0000001617815560c0830151815465ffff000000001916908e1660201b65ffff0000000016179055565b60e08101516004850155610100810151600585015561012081015160068501556007840167ffffffffffffffff610140830151168154906fffffffffffffffff000000000000000061016085015160401b169077ffffffffffffffffffffffffffffffffffffffffffffffff1967ffffffffffffffff60801b61018087015160801b16931617171790556101a081015160088501556101c081015160098501550151151591019060ff801983541691151516179055565b918583038b870152612308565b941660408201528033940390a3604051348152817f64b53a7331c11a429ec4676266ed2e64b88e85a136e6dca667b1493c3d3eda2d843393a3604051908152f35b015190505f80611288565b906002859a999897969a0160a051528060a051209160a0515b601f19851681106114ba575094600a6101e06113d798966001877f3b00b7001e82faf0b4409e432612c0e957f3a812abef601468e10f0b403147d09e9f97610bf29761ffff9e9c6113ca9b601f198116106114a2575b505050811b01600285015561129f565b01515f1960f88460031b161c191690555f8080611492565b8183015184558d9a50600190930192918e01918e0161143c565b6002850160a05152602060a05120601f840160051c81019160208510611518575b601f0160051c01905b81811061150b5750611226565b60a05181556001016114fe565b90915081906114f5565b015190508a806111e2565b92506001850160a051528060a051209060a051935b601f1984168510611585576001945083601f1981161061156d575b505050811b0160018301556111f9565b01515f1960f88460031b161c191690558a808061155d565b81810151835560209485019460019093019290910190611542565b9091506001850160a05152602060a05120601f840160051c8101602085106115ef575b90849392915b601f830160051c820181106115df5750506111ca565b60a05181558594506001016115c9565b50806115c3565b50601061ffff841611611086565b34611695576020366003190112611695576001600160a01b037f000000000000000000000000000000000000000000000000000000000000000016803b15611695575f8091602460405180948193634124beef60e01b835260043560048401525af1801561168a576116765760a05180f35b5f6116809161211d565b5f60a0528061029d565b6040513d5f823e3d90fd5b5f80fd5b34611695576020366003190112611695576004355f52600260205260a060405f2060078101549060ff600a6008830154920154169067ffffffffffffffff604051938181168552818160401c16602086015260801c166040840152606083015215156080820152f35b34611695575f3660031901126116955760206040517f00000000000000000000000000000000000000000000000000000000000000008152f35b34611695575f36600319011261169557335f52600560205260405f205480156117ca575f808080933382526005602052816040812055335af161177d612328565b501561178557005b60405162461bcd60e51b815260206004820152601260248201527f63726561746f7220666565206661696c656400000000000000000000000000006044820152606490fd5b63188fc9f360e31b5f5260045ffd5b34611695576040366003190112611695576004355f52600360205260405f206024355f5260205260c060405f206001600160a01b0381541690600181015490600381015460048201549060ff6006600585015494015416936040519586526020860152604085015260608401526080830152151560a0820152f35b34611695575f3660031901126116955760206040516001600160a01b037f0000000000000000000000000000000000000000000000000000000000000000168152f35b34611695575f3660031901126116955760206040517f00000000000000000000000000000000000000000000000000000000000000008152f35b34611695576060366003190112611695576004356024359061ffff82168092036116955760443567ffffffffffffffff81116116955761191590369060040161217f565b825f93929352600260205260405f20926001600160a01b0384541615611d085760ff600385015460181c16611cf95767ffffffffffffffff600785015460801c168015159081611cef575b50611ce0577f00000000000000000000000000000000000000000000000000000000000000009384611ba7575b6020604051808097636457c97960e01b825261012060048301526119b661012483018888612308565b903360248401523060448401525f606484015267ffffffffffffffff7f00000000000000000000000000000000000000000000000000000000000000001660848401526001600160a01b037f00000000000000000000000000000000000000000000000000000000000000001660a484015260c48301527f000000000000000000000000000000000000000000000000000000000000000060e48301527f000000000000000000000000000000000000000000000000000000000000000061010483015203815f6001600160a01b037f0000000000000000000000000000000000000000000000000000000000000000165af194851561168a575f95611b6e575b5091602095611b637f7b1e2bad1b44d892fa900cd56ee301d0dd14c5b85db614874fd24c41e8027c10938760068198970155611b4b604051611af8816120e4565b8781528a81019085825261ffff80600160408401938185528d5f528f6004905260405f2090518155019351161661ffff1983541617825551151562ff0000825491151560101b169062ff00001916179055565b604051938493845260408a8501526040840191612308565b0390a3604051908152f35b945092916020853d602011611b9f575b81611b8b6020938361211d565b810103126116955793519391926020611ab7565b3d9150611b7e565b7f0000000000000000000000000000000000000000000000000000000000000000611c026040516323b872dd60e01b602082015233602482015230604482015287606482015260648152611bfc60848261211d565b826128bd565b6001600160a01b037f000000000000000000000000000000000000000000000000000000000000000016906040519060205f81840163095ea7b360e01b81528560248601528a604486015260448552611c5c60648661211d565b84519082855af15f513d82611cbb575b505015611c7c575b50505061198d565b611cae611cb3936040519063095ea7b360e01b602083015260248201525f604482015260448152611bfc60648261211d565b6128bd565b868080611c74565b909150611cd857506001600160a01b0381163b15155b8a80611c6c565b600114611cd1565b639b6997a960e01b5f5260045ffd5b9050421086611960565b63aa43cb2d60e01b5f5260045ffd5b639db8d5b160e01b5f5260045ffd5b60a03660031901126116955760043560843567ffffffffffffffff811161169557611d4690369060040161217f565b825f93929352600260205260405f20916001600160a01b0383541615611d085760ff600384015460181c16611cf9573415611fff5767ffffffffffffffff600784015416801515908161201d575b5061200e57611da234612357565b611dac8134612296565b8015611fff57611df5611ded611dce611dc636888b6122b7565b6024356123c1565b97611de5611ddd3689846122b7565b604435612528565b9636916122b7565b606435612528565b60096005870196611e0688546122ed565b80985560048101611e188582546122fb565b905501611e268482546122fb565b90556040519460e086019786891067ffffffffffffffff8a1117611feb57611ef6889760209a6040523381526006888a8d8401898152604085018b8152606086019088825260808701928a845260a08801948c865260c08901965f88525f5260206003905260405f20905f526020526001600160a01b038060405f209951161673ffffffffffffffffffffffffffffffffffffffff1989541617885551600188015551600287015551600386015551600485015551600584015551151591019060ff801983541691151516179055565b80158181611fd8575b611f0a903090612842565b611f1383612623565b50611f1d84612623565b508190611fc5575b611f30903390612842565b611f3a3383612642565b50611f453384612642565b50604051938452888401526040830152606082015283837fd00fc7dfeff31b638d5e6dcf5ceb8f6a575d6e13ee68ee4c12cc0c80c3dc5af260803394a480611f93575b505050604051908152f35b847f77c88b90a4c8601c1a0f825332fb02c3b24fdcccde3e6a33e0d286264ad5a85291604051908152a3808380611f88565b50611f30611fd1612911565b9050611f25565b50611f0a611fe4612911565b9050611eff565b634e487b7160e01b5f52604160045260245ffd5b631e86a78f60e31b5f5260045ffd5b63300b4e3360e21b5f5260045ffd5b905042101585611d94565b34611695575f3660031901126116955761101c60405161204960408261211d565b600881527f4e6f4d61726b6574000000000000000000000000000000000000000000000000602082015260405191829160208352602083019061215b565b34611695575f3660031901126116955760206040516001600160a01b037f0000000000000000000000000000000000000000000000000000000000000000168152f35b34611695575f36600319011261169557806103e860209252f35b6060810190811067ffffffffffffffff821117611feb57604052565b610200810190811067ffffffffffffffff821117611feb57604052565b90601f8019910116810190811067ffffffffffffffff821117611feb57604052565b67ffffffffffffffff8111611feb57601f01601f191660200190565b805180835260209291819084018484015e5f828201840152601f01601f1916010190565b9181601f840112156116955782359167ffffffffffffffff8311611695576020838186019501011161169557565b6044359061ffff8216820361169557565b90600182811c921680156121ec575b60208310146121d857565b634e487b7160e01b5f52602260045260245ffd5b91607f16916121cd565b9060405191825f825492612209846121be565b80845293600181169081156122745750600114612230575b5061222e9250038361211d565b565b90505f9291925260205f20905f915b81831061225857505090602061222e928201015f612221565b602091935080600191548385890101520191019091849261223f565b90506020925061222e94915060ff191682840152151560051b8201015f612221565b919082039182116122a357565b634e487b7160e01b5f52601160045260245ffd5b9291926122c38261213f565b916122d1604051938461211d565b829481845281830111611695578281602093845f960137010152565b5f1981146122a35760010190565b919082018092116122a357565b908060209392818452848401375f828201840152601f01601f1916010190565b3d15612352573d906123398261213f565b91612347604051938461211d565b82523d5f602084013e565b606090565b7f000000000000000000000000000000000000000000000000000000000000000080156123bb57808202918083048214901517156122a357612710019081612710116122a35781156123a7570490565b634e487b7160e01b5f52601260045260245ffd5b50505f90565b8151909190156124f0576124246001600160a01b037f9e7b61f58c47dc699ac88507c4f5bb9f121c03808c5676a8078fe583e46497015416916040519363045fc19560e11b8552600485015233602485015260806044850152608484019061215b565b602091835f8180946005606483015203925af190811561168a575f916124be575b506001600160a01b037f9e7b61f58c47dc699ac88507c4f5bb9f121c03808c5676a8078fe583e46497005416803b1561169557604051630f8e573b60e21b815260048101839052336024820152905f908290818381604481015b03925af1801561168a576124b1575090565b5f6124bb9161211d565b90565b90506020813d6020116124e8575b816124d96020938361211d565b8101031261169557515f612445565b3d91506124cc565b50801561251f5761250133826127a3565b156125095790565b630276b5d960e01b5f526004523360245260445ffd5b506124bb612911565b8151909190156126095761258b6001600160a01b037f9e7b61f58c47dc699ac88507c4f5bb9f121c03808c5676a8078fe583e46497015416916040519363045fc19560e11b8552600485015233602485015260806044850152608484019061215b565b602091835f8180946003606483015203925af190811561168a575f916124be57506001600160a01b037f9e7b61f58c47dc699ac88507c4f5bb9f121c03808c5676a8078fe583e46497005416803b1561169557604051630f8e573b60e21b815260048101839052336024820152905f9082908183816044810161249f565b50801561261a5761250133826127a3565b506124bb6129a1565b8015612634575b6124bb3082612842565b5061263d6129a1565b61262a565b908115612654575b6124bb9082612842565b90506124bb6126616129a1565b91905061264a565b4660010361267657600190565b4662aa36a7036126865761271190565b617a694614612693575f90565b5f1990565b600a8201805460ff811661279d5760019060ff19161790556009820154916103e883028381046103e814841517156122a3576126dc6127106126e492048095612296565b6001546122fb565b6001558215612798575f808080866001600160a01b038654165af1612707612328565b50156127455760206001600160a01b037f01239648514ee3b37718c33c5da8a8c2bec50126d9706a6df3a6afbd05055c0492541693604051908152a3565b60206001600160a01b0382817fdb3816a907d9a78016f52251dfa97b7095e95f1b8488b517f3f9be6f4d399d9d9454165f526005835260405f2061278a8782546122fb565b9055541693604051908152a3565b505050565b50505050565b7f9e7b61f58c47dc699ac88507c4f5bb9f121c03808c5676a8078fe583e4649700546040516382027b6d60e01b815260048101929092526001600160a01b039283166024830152909160209183916044918391165afa90811561168a575f9161280a575090565b90506020813d60201161283a575b816128256020938361211d565b81010312611695575180151581036116955790565b3d9150612818565b6001600160a01b037f9e7b61f58c47dc699ac88507c4f5bb9f121c03808c5676a8078fe583e4649700541691823b1561169557604051635ca4b5b160e11b815260048101929092526001600160a01b03166024820152905f908290604490829084905af1801561168a576128b35750565b5f61222e9161211d565b905f602091828151910182855af11561168a575f513d61290857506001600160a01b0381163b155b6128ec5750565b6001600160a01b0390635274afe760e01b5f521660045260245ffd5b600114156128e5565b7f9e7b61f58c47dc699ac88507c4f5bb9f121c03808c5676a8078fe583e464970154604051639cd07acb60e01b81525f6004820152906001600160a01b0316816044815f602094600560248401525af190811561168a575f91612972575090565b90506020813d602011612999575b8161298d6020938361211d565b81010312611695575190565b3d9150612980565b7f9e7b61f58c47dc699ac88507c4f5bb9f121c03808c5676a8078fe583e464970154604051639cd07acb60e01b81525f6004820152906001600160a01b0316816044815f602094600360248401525af190811561168a575f9161297257509056","linkReferences":{}},"methodIdentifiers":{"BPS_DENOMINATOR()":"e1a45218","CREATOR_FEE_SHARE_BPS()":"03394db2","assertionDomain()":"9bb9635e","assertionIdentifier()":"20214919","assertionLiveness()":"b75d4e24","assertionResolvedCallback(bytes32,bool)":"f1b156b2","betFeeBps()":"3eadd53c","bond()":"64c9ec6f","bondCurrency()":"0484d542","claimCreatorFees()":"351fee46","confidentialProtocolId()":"8927b030","createMarket(string,string,uint16)":"4dca6966","createTimedMarket(string,string,uint16,uint64,uint64,uint64)":"6c1c1b2f","creationFee()":"dce0b4e4","getBet(uint256,uint256)":"2301b83d","marketCount()":"ec979082","marketLifecycle(uint256)":"3f37bcb2","markets(uint256)":"b1283e77","name()":"06fdde03","optimisticOracle()":"22302922","pendingCreatorFees(address)":"c598b2f9","pendingResolutions(bytes32)":"a24a27bc","placeBet(uint256,bytes32,bytes32,bytes32,bytes)":"18a5347f","proposeUmaResolution(uint256,uint16,string)":"1db88499","settleUmaResolution(bytes32)":"487f64aa","treasury()":"61d027b3","treasuryFeeBalance()":"9be7761f","version()":"54fd4d50","withdrawTreasuryFees(address)":"a2d169be"},"id":31}