{"abi":[{"type":"constructor","inputs":[{"name":"optimisticOracle_","type":"address","internalType":"address"},{"name":"creationFee_","type":"uint256","internalType":"uint256"},{"name":"betFeeBps_","type":"uint256","internalType":"uint256"}],"stateMutability":"nonpayable"},{"type":"function","name":"BPS_DENOMINATOR","inputs":[],"outputs":[{"name":"","type":"uint256","internalType":"uint256"}],"stateMutability":"view"},{"type":"function","name":"CREATOR_FEE_SHARE_BPS","inputs":[],"outputs":[{"name":"","type":"uint256","internalType":"uint256"}],"stateMutability":"view"},{"type":"function","name":"MAX_MATCHED_OUTCOMES","inputs":[],"outputs":[{"name":"","type":"uint256","internalType":"uint256"}],"stateMutability":"view"},{"type":"function","name":"assertionIdToMarketId","inputs":[{"name":"","type":"bytes32","internalType":"bytes32"}],"outputs":[{"name":"","type":"uint256","internalType":"uint256"}],"stateMutability":"view"},{"type":"function","name":"assertionResolvedCallback","inputs":[{"name":"assertionId","type":"bytes32","internalType":"bytes32"},{"name":"assertedTruthfully","type":"bool","internalType":"bool"}],"outputs":[],"stateMutability":"nonpayable"},{"type":"function","name":"betFeeBps","inputs":[],"outputs":[{"name":"","type":"uint256","internalType":"uint256"}],"stateMutability":"view"},{"type":"function","name":"betMinterms","inputs":[{"name":"betId","type":"uint256","internalType":"uint256"}],"outputs":[{"name":"outcomeMasks","type":"uint256[]","internalType":"uint256[]"},{"name":"careMasks","type":"uint256[]","internalType":"uint256[]"}],"stateMutability":"view"},{"type":"function","name":"bets","inputs":[{"name":"","type":"uint256","internalType":"uint256"}],"outputs":[{"name":"bettor","type":"address","internalType":"address"},{"name":"marketId","type":"uint256","internalType":"uint256"},{"name":"stake","type":"uint256","internalType":"uint256"},{"name":"fee","type":"uint256","internalType":"uint256"},{"name":"outcomeMask","type":"uint256","internalType":"uint256"},{"name":"careMask","type":"uint256","internalType":"uint256"},{"name":"expression","type":"string","internalType":"string"},{"name":"claimed","type":"bool","internalType":"bool"}],"stateMutability":"view"},{"type":"function","name":"claimBet","inputs":[{"name":"betId","type":"uint256","internalType":"uint256"}],"outputs":[{"name":"payout","type":"uint256","internalType":"uint256"}],"stateMutability":"nonpayable"},{"type":"function","name":"claimBets","inputs":[{"name":"betIds","type":"uint256[]","internalType":"uint256[]"}],"outputs":[{"name":"claimedCount","type":"uint256","internalType":"uint256"}],"stateMutability":"nonpayable"},{"type":"function","name":"claimCreatorFees","inputs":[],"outputs":[],"stateMutability":"nonpayable"},{"type":"function","name":"claimPendingPayout","inputs":[],"outputs":[],"stateMutability":"nonpayable"},{"type":"function","name":"claimablePayout","inputs":[{"name":"betId","type":"uint256","internalType":"uint256"}],"outputs":[{"name":"","type":"uint256","internalType":"uint256"}],"stateMutability":"view"},{"type":"function","name":"createMarket","inputs":[{"name":"title","type":"string","internalType":"string"},{"name":"metadata","type":"string","internalType":"string"},{"name":"atomCount","type":"uint8","internalType":"uint8"}],"outputs":[{"name":"marketId","type":"uint256","internalType":"uint256"}],"stateMutability":"payable"},{"type":"function","name":"createTimedMarket","inputs":[{"name":"title","type":"string","internalType":"string"},{"name":"metadata","type":"string","internalType":"string"},{"name":"atomCount","type":"uint8","internalType":"uint8"},{"name":"tradingEndTime","type":"uint64","internalType":"uint64"},{"name":"eventOccurrenceTime","type":"uint64","internalType":"uint64"},{"name":"resolutionBufferSeconds","type":"uint64","internalType":"uint64"}],"outputs":[{"name":"marketId","type":"uint256","internalType":"uint256"}],"stateMutability":"payable"},{"type":"function","name":"creationFee","inputs":[],"outputs":[{"name":"","type":"uint256","internalType":"uint256"}],"stateMutability":"view"},{"type":"function","name":"fundMarketRewards","inputs":[{"name":"marketId","type":"uint256","internalType":"uint256"}],"outputs":[],"stateMutability":"payable"},{"type":"function","name":"isWinningBet","inputs":[{"name":"betId","type":"uint256","internalType":"uint256"}],"outputs":[{"name":"","type":"bool","internalType":"bool"}],"stateMutability":"view"},{"type":"function","name":"marketLifecycle","inputs":[{"name":"marketId","type":"uint256","internalType":"uint256"}],"outputs":[{"name":"tradingEndTime","type":"uint64","internalType":"uint64"},{"name":"eventOccurrenceTime","type":"uint64","internalType":"uint64"},{"name":"resolutionTime","type":"uint64","internalType":"uint64"},{"name":"creatorDeposit","type":"uint256","internalType":"uint256"},{"name":"depositClaimed","type":"bool","internalType":"bool"}],"stateMutability":"view"},{"type":"function","name":"markets","inputs":[{"name":"","type":"uint256","internalType":"uint256"}],"outputs":[{"name":"creator","type":"address","internalType":"address"},{"name":"title","type":"string","internalType":"string"},{"name":"metadata","type":"string","internalType":"string"},{"name":"atomCount","type":"uint8","internalType":"uint8"},{"name":"resolved","type":"bool","internalType":"bool"},{"name":"outcomeVector","type":"uint256","internalType":"uint256"},{"name":"assertionId","type":"bytes32","internalType":"bytes32"},{"name":"tradingEndTime","type":"uint64","internalType":"uint64"},{"name":"eventOccurrenceTime","type":"uint64","internalType":"uint64"},{"name":"resolutionTime","type":"uint64","internalType":"uint64"},{"name":"creationFeePaid","type":"uint256","internalType":"uint256"},{"name":"totalStake","type":"uint256","internalType":"uint256"},{"name":"totalFees","type":"uint256","internalType":"uint256"},{"name":"rewardPool","type":"uint256","internalType":"uint256"},{"name":"creatorFeesPaid","type":"bool","internalType":"bool"}],"stateMutability":"view"},{"type":"function","name":"nextBetId","inputs":[],"outputs":[{"name":"","type":"uint256","internalType":"uint256"}],"stateMutability":"view"},{"type":"function","name":"nextMarketId","inputs":[],"outputs":[{"name":"","type":"uint256","internalType":"uint256"}],"stateMutability":"view"},{"type":"function","name":"optimisticOracle","inputs":[],"outputs":[{"name":"","type":"address","internalType":"contract IAssertionResolverLike"}],"stateMutability":"view"},{"type":"function","name":"pendingCreatorFees","inputs":[{"name":"","type":"address","internalType":"address"}],"outputs":[{"name":"","type":"uint256","internalType":"uint256"}],"stateMutability":"view"},{"type":"function","name":"pendingPayouts","inputs":[{"name":"","type":"address","internalType":"address"}],"outputs":[{"name":"","type":"uint256","internalType":"uint256"}],"stateMutability":"view"},{"type":"function","name":"placeBet","inputs":[{"name":"marketId","type":"uint256","internalType":"uint256"},{"name":"outcomeMask","type":"uint256","internalType":"uint256"},{"name":"careMask","type":"uint256","internalType":"uint256"},{"name":"expression","type":"string","internalType":"string"}],"outputs":[{"name":"betId","type":"uint256","internalType":"uint256"}],"stateMutability":"payable"},{"type":"function","name":"placeBetMinterms","inputs":[{"name":"marketId","type":"uint256","internalType":"uint256"},{"name":"outcomeMasks","type":"uint256[]","internalType":"uint256[]"},{"name":"careMasks","type":"uint256[]","internalType":"uint256[]"},{"name":"expression","type":"string","internalType":"string"}],"outputs":[{"name":"betId","type":"uint256","internalType":"uint256"}],"stateMutability":"payable"},{"type":"function","name":"proposeResolution","inputs":[{"name":"marketId","type":"uint256","internalType":"uint256"},{"name":"outcomeVector","type":"uint256","internalType":"uint256"},{"name":"claim","type":"string","internalType":"string"}],"outputs":[{"name":"assertionId","type":"bytes32","internalType":"bytes32"}],"stateMutability":"nonpayable"},{"type":"function","name":"treasury","inputs":[],"outputs":[{"name":"","type":"address","internalType":"address"}],"stateMutability":"view"},{"type":"function","name":"treasuryFeeBalance","inputs":[],"outputs":[{"name":"","type":"uint256","internalType":"uint256"}],"stateMutability":"view"},{"type":"function","name":"winningStakeByOutcome","inputs":[{"name":"","type":"uint256","internalType":"uint256"},{"name":"","type":"uint256","internalType":"uint256"}],"outputs":[{"name":"","type":"uint256","internalType":"uint256"}],"stateMutability":"view"},{"type":"function","name":"withdrawTreasuryFees","inputs":[{"name":"recipient","type":"address","internalType":"address payable"}],"outputs":[],"stateMutability":"nonpayable"},{"type":"event","name":"BetClaimed","inputs":[{"name":"marketId","type":"uint256","indexed":true,"internalType":"uint256"},{"name":"betId","type":"uint256","indexed":true,"internalType":"uint256"},{"name":"bettor","type":"address","indexed":true,"internalType":"address"},{"name":"payout","type":"uint256","indexed":false,"internalType":"uint256"}],"anonymous":false},{"type":"event","name":"BetFeeCollected","inputs":[{"name":"marketId","type":"uint256","indexed":true,"internalType":"uint256"},{"name":"betId","type":"uint256","indexed":true,"internalType":"uint256"},{"name":"fee","type":"uint256","indexed":false,"internalType":"uint256"}],"anonymous":false},{"type":"event","name":"BetMinterm","inputs":[{"name":"marketId","type":"uint256","indexed":true,"internalType":"uint256"},{"name":"betId","type":"uint256","indexed":true,"internalType":"uint256"},{"name":"mintermIndex","type":"uint16","indexed":true,"internalType":"uint16"},{"name":"outcomeMask","type":"uint256","indexed":false,"internalType":"uint256"},{"name":"careMask","type":"uint256","indexed":false,"internalType":"uint256"}],"anonymous":false},{"type":"event","name":"BetPlaced","inputs":[{"name":"marketId","type":"uint256","indexed":true,"internalType":"uint256"},{"name":"betId","type":"uint256","indexed":true,"internalType":"uint256"},{"name":"bettor","type":"address","indexed":true,"internalType":"address"},{"name":"stake","type":"uint256","indexed":false,"internalType":"uint256"},{"name":"outcomeMask","type":"uint256","indexed":false,"internalType":"uint256"},{"name":"careMask","type":"uint256","indexed":false,"internalType":"uint256"},{"name":"expression","type":"string","indexed":false,"internalType":"string"}],"anonymous":false},{"type":"event","name":"CreatorFeesClaimable","inputs":[{"name":"marketId","type":"uint256","indexed":true,"internalType":"uint256"},{"name":"creator","type":"address","indexed":true,"internalType":"address"},{"name":"amount","type":"uint256","indexed":false,"internalType":"uint256"}],"anonymous":false},{"type":"event","name":"CreatorFeesPaid","inputs":[{"name":"marketId","type":"uint256","indexed":true,"internalType":"uint256"},{"name":"creator","type":"address","indexed":true,"internalType":"address"},{"name":"amount","type":"uint256","indexed":false,"internalType":"uint256"}],"anonymous":false},{"type":"event","name":"MarketCreated","inputs":[{"name":"marketId","type":"uint256","indexed":true,"internalType":"uint256"},{"name":"creator","type":"address","indexed":true,"internalType":"address"},{"name":"title","type":"string","indexed":false,"internalType":"string"},{"name":"atomCount","type":"uint8","indexed":false,"internalType":"uint8"}],"anonymous":false},{"type":"event","name":"MarketCreationFeePaid","inputs":[{"name":"marketId","type":"uint256","indexed":true,"internalType":"uint256"},{"name":"creator","type":"address","indexed":true,"internalType":"address"},{"name":"amount","type":"uint256","indexed":false,"internalType":"uint256"}],"anonymous":false},{"type":"event","name":"MarketLifecycleConfigured","inputs":[{"name":"marketId","type":"uint256","indexed":true,"internalType":"uint256"},{"name":"tradingEndTime","type":"uint64","indexed":false,"internalType":"uint64"},{"name":"eventOccurrenceTime","type":"uint64","indexed":false,"internalType":"uint64"},{"name":"resolutionTime","type":"uint64","indexed":false,"internalType":"uint64"},{"name":"creationFeePaid","type":"uint256","indexed":false,"internalType":"uint256"}],"anonymous":false},{"type":"event","name":"MarketMetadata","inputs":[{"name":"marketId","type":"uint256","indexed":true,"internalType":"uint256"},{"name":"metadata","type":"string","indexed":false,"internalType":"string"}],"anonymous":false},{"type":"event","name":"MarketResolved","inputs":[{"name":"marketId","type":"uint256","indexed":true,"internalType":"uint256"},{"name":"outcomeVector","type":"uint256","indexed":false,"internalType":"uint256"}],"anonymous":false},{"type":"event","name":"MarketRewardFunded","inputs":[{"name":"marketId","type":"uint256","indexed":true,"internalType":"uint256"},{"name":"funder","type":"address","indexed":true,"internalType":"address"},{"name":"amount","type":"uint256","indexed":false,"internalType":"uint256"}],"anonymous":false},{"type":"event","name":"PendingPayoutClaimed","inputs":[{"name":"account","type":"address","indexed":true,"internalType":"address"},{"name":"amount","type":"uint256","indexed":false,"internalType":"uint256"}],"anonymous":false},{"type":"event","name":"TreasuryFeesWithdrawn","inputs":[{"name":"recipient","type":"address","indexed":true,"internalType":"address"},{"name":"amount","type":"uint256","indexed":false,"internalType":"uint256"}],"anonymous":false},{"type":"event","name":"UmaResolutionProposed","inputs":[{"name":"marketId","type":"uint256","indexed":true,"internalType":"uint256"},{"name":"assertionId","type":"bytes32","indexed":true,"internalType":"bytes32"},{"name":"outcomeVector","type":"uint256","indexed":false,"internalType":"uint256"},{"name":"claim","type":"string","indexed":false,"internalType":"string"}],"anonymous":false}],"bytecode":{"object":"0x6101003461014c57601f61350638819003918201601f19168301916001600160401b038311848410176101505780849260609460405283398101031261014c5780516001600160a01b038116919082900361014c5760406020820151910151916001805560016002558015610115576107d083116100e1576080523360a05260c05260e0526040516133a190816101658239608051818181611416015281816125540152612d15015260a0518181816111ab0152611726015260c05181818161029b01528181610afb0152610b91015260e051818181611e0b0152612e3f0152f35b60405162461bcd60e51b815260206004820152600c60248201526b0cccaca40e8dede40d0d2ced60a31b6044820152606490fd5b60405162461bcd60e51b815260206004820152600f60248201526e1bdc9858db19481c995c5d5a5c9959608a1b6044820152606490fd5b5f80fd5b634e487b7160e01b5f52604160045260245ffdfe6080806040526004361015610012575f80fd5b5f905f3560e01c90816302a18a41146125945750806303394db214612578578063223029221461253557806322af00fa14612497578063230c7fd714611f635780632755281314611f2d578063351fee4614611e2e5780633eadd53c14611df45780633ed29d6d14611d265780633f37bcb214611cbd578063406ef2ef14611ca05780634df86c4314611c825780634ed52c2f1461180a57806358b6fa4d146117ee578063599d443b1461174a57806361d027b3146117075780636662e4be146116df57806376c1cb7b14611675578063784712f21461163a57806381d99c31146113515780639aca2792146113335780639be7761f146113165780639e0bd808146112ef578063a2d169be1461117b578063b1283e7714611056578063c598b2f91461101a578063c79fdaf914610ff0578063ca76033814610b1e578063dce0b4e414610ae3578063e1a4521814610ac6578063f1b156b214610a995763f629713f1461017e575f80fd5b60c0366003190112610a965760043567ffffffffffffffff8111610a94576101aa90369060040161281b565b9060243567ffffffffffffffff8111610a90576101cb90369060040161281b565b90926101d561287c565b936064359067ffffffffffffffff82168203610a8c576084359367ffffffffffffffff85168503610a885760a43567ffffffffffffffff8116809103610a84574267ffffffffffffffff85161115610a3f5767ffffffffffffffff841667ffffffffffffffff8716106109fa5780156109b55767ffffffffffffffff8616019367ffffffffffffffff85116109a15767ffffffffffffffff861667ffffffffffffffff8616111561095c57801561091757600260ff8916101580610909575b156108c4577f0000000000000000000000000000000000000000000000000000000000000000341061087f57600154966102cd88612a14565b600155604051996102dd8b6126e7565b338b526102eb368484612a32565b60208c01526102fb368587612a32565b60408c015260ff8a1660608c01528060808c01528060a08c01528060c08c015267ffffffffffffffff861660e08c015267ffffffffffffffff88166101008c015267ffffffffffffffff87166101208c0152346101408c0152806101608c0152806101808c0152806101a08c0152806101c08c01528881526003602052604081206001600160a01b03808d5116166001600160a01b031982541617815560208c015180519067ffffffffffffffff82116107a85781906103be6001850154612692565b601f811161082f575b50602090601f83116001146107c75785926107bc575b50508160011b915f199060031b1c19161760018201555b60408c01519b8c5167ffffffffffffffff81116107a8576104186002840154612692565b601f8111610764575b5060209d8e90601f831160011461069d577fd9c86b4ada14753e9a07e0723db534317f3cead8b45309e79e44b660d823e02f98968e9f968f9b99948c97600b6101c07fd0049a24ef1a510cdc315447c31770861dffc007f21e851e15d947324bd8590999846105b79560ff9a6105d69a8992610692575b50508160011b915f199060031b1c19161760028501555b6104e3600385018a6060840151168b198254161781556080830151151561ff00825491151560081b169061ff001916179055565b60a0810151600485015560c081015160058501556006840167ffffffffffffffff60e0830151168154906fffffffffffffffff000000000000000061010085015160401b16907fffffffffffffffff00000000000000000000000000000000000000000000000077ffffffffffffffff0000000000000000000000000000000061012087015160801b16931617171790556101408101516007850155610160810151600885015561018081015160098501556101a0810151600a8501550151151591019060ff801983541691151516179055565b6105c2348254612a68565b905560405193604085526040850191612a75565b94168e8201528033940390a36105f76040519283928c84528c840191612a75565b0390a2604051348152847f64b53a7331c11a429ec4676266ed2e64b88e85a136e6dca667b1493c3d3eda2d883393a367ffffffffffffffff8116610640575b8584604051908152f35b67ffffffffffffffff608092817fd060f1fe4ea6a4b672c4248a956f7dd2343f17022f3c30166819f94d55bd090a9581604051951685521688840152166040820152346060820152a2805f8080610636565b015190505f80610498565b9060028501865280862091865b601f198516811061074c5750968e9f968f9b99948c97600b6101c07fd0049a24ef1a510cdc315447c31770861dffc007f21e851e15d947324bd85909997fd9c86b4ada14753e9a07e0723db534317f3cead8b45309e79e44b660d823e02f9f9d8560ff9a6105d69a6001936105b799601f19811610610734575b505050811b0160028501556104af565b01515f1960f88460031b161c191690555f8080610724565b919260206001819286850151815501940192016106aa565b60028401855260208520601f830160051c8101602084106107a1575b601f830160051c82018110610796575050610421565b868155600101610780565b5080610780565b634e487b7160e01b84526041600452602484fd5b015190505f806103dd565b6001850186528186209250601f198416865b81811061081757509084600195949392106107ff575b505050811b0160018201556103f4565b01515f1960f88460031b161c191690555f80806107ef565b929360206001819287860151815501950193016107d9565b90915060018401855260208520601f840160051c810160208510610878575b90849392915b601f830160051c8201811061086a5750506103c7565b878155859450600101610854565b508061084e565b60405162461bcd60e51b815260206004820152601560248201527f6372656174696f6e2066656520726571756972656400000000000000000000006044820152606490fd5b60405162461bcd60e51b815260206004820152600a60248201527f61746f6d2072616e6765000000000000000000000000000000000000000000006044820152606490fd5b50601060ff89161115610294565b60405162461bcd60e51b815260206004820152600e60248201527f7469746c652072657175697265640000000000000000000000000000000000006044820152606490fd5b60405162461bcd60e51b815260206004820152601360248201527f7265736f6c7574696f6e206f766572666c6f77000000000000000000000000006044820152606490fd5b634e487b7160e01b89526011600452602489fd5b60405162461bcd60e51b815260206004820152600f60248201527f62756666657220726571756972656400000000000000000000000000000000006044820152606490fd5b60405162461bcd60e51b815260206004820152601860248201527f6576656e74206265666f72652074726164696e6720656e6400000000000000006044820152606490fd5b60405162461bcd60e51b815260206004820152601360248201527f74726164696e6720656e6420696e2070617374000000000000000000000000006044820152606490fd5b8880fd5b8780fd5b8680fd5b8380fd5b505b80fd5b5034610a96576040366003190112610a96576024358015158103610a9457610ac390600435612d0b565b80f35b5034610a965780600319360112610a965760206040516127108152f35b5034610a965780600319360112610a965760206040517f00000000000000000000000000000000000000000000000000000000000000008152f35b506060366003190112610a965760043567ffffffffffffffff8111610a9457610b4b90369060040161281b565b60249291923567ffffffffffffffff8111610fec57610b6e90369060040161281b565b610b7661287c565b831561091757600260ff8216101580610fde575b156108c4577f0000000000000000000000000000000000000000000000000000000000000000341061087f5760015493610bc385612a14565b60015560405196610bd3886126e7565b338852610be1368383612a32565b6020890152610bf1368587612a32565b604089015260ff831660608901528660808901528660a08901528660c08901528660e08901528661010089015286610120890152346101408901528661016089015286610180890152866101a0890152866101c0890152858752600360205260408720966001600160a01b03808a5116166001600160a01b0319895416178855602089015180519067ffffffffffffffff8211610f02578190610c9760018c0154612692565b601f8111610f8e575b50602090601f8311600114610f21578492610f16575b50508160011b915f199060031b1c19161760018901555b60408901519788519967ffffffffffffffff8b11610f0257610cf26002830154612692565b601f8111610ebd575b5060209a8b601f8211600114610e125794846105b77fd9c86b4ada14753e9a07e0723db534317f3cead8b45309e79e44b660d823e02f9b9a999895600b8e9f8f9a9787610dba9860ff9a6101c0947fd0049a24ef1a510cdc315447c31770861dffc007f21e851e15d947324bd859099e926106925750508160011b915f199060031b1c19161760028501556104e3600385018a6060840151168b198254161781556080830151151561ff00825491151560081b169061ff001916179055565b94168a8201528033940390a3610ddb60405192839288845288840191612a75565b0390a2604051348152817f64b53a7331c11a429ec4676266ed2e64b88e85a136e6dca667b1493c3d3eda2d843393a3604051908152f35b6002840185528085209b855b601f1984168110610ea65750946105b77fd9c86b4ada14753e9a07e0723db534317f3cead8b45309e79e44b660d823e02f9b9a999895600b8e9f8f9a95976001886101c09360ff9b7fd0049a24ef1a510cdc315447c31770861dffc007f21e851e15d947324bd859099e610dba9c601f1981161061073457505050811b0160028501556104af565b828201518e556001909d019c918e01918e01610e1e565b600283018452602084208c6020601f820160051c83019110610efb575b601f830160051c82018110610ef0575050610cfb565b858155600101610eda565b5080610eda565b634e487b7160e01b83526041600452602483fd5b015190505f80610cb6565b925060018b0184528084209084935b601f1984168510610f73576001945083601f19811610610f5b575b505050811b016001890155610ccd565b01515f1960f88460031b161c191690555f8080610f4b565b81810151835560209485019460019093019290910190610f30565b90915060018b01845260208420601f840160051c810160208510610fd7575b90849392915b601f830160051c82018110610fc9575050610ca0565b868155859450600101610fb3565b5080610fad565b50601060ff82161115610b8a565b8280fd5b5034610a96576020366003190112610a965760406020916004358152600983522054604051908152f35b5034610a96576020366003190112610a96576004356001600160a01b038116809103610a94578160409160209352600b83522054604051908152f35b5034610a96576020366003190112610a9657600435815260036020526040902080546001600160a01b031661108d60018301612726565b9161109a60028201612726565b600382015491600481015460058201546006830154600784015490600885015492600986015494600a87015496600b015460ff16976040519b8c9b8c5260208c016101e090526101e08c016110ee916127c6565b8b810360408d01526110ff916127c6565b9860ff811660608c015260081c60ff16151560808b015260a08a015260c089015267ffffffffffffffff811660e08901528060401c67ffffffffffffffff1661010089015260801c67ffffffffffffffff166101208801526101408701526101608601526101808501526101a084015215156101c08301520390f35b5034610a96576020366003190112610a96576004356001600160a01b038116809103610a94576001600160a01b037f00000000000000000000000000000000000000000000000000000000000000001633036112aa5780156112655781548280558280808084865af16111ec6128a8565b50156112205760207f6cf9da8175f411fa545f8147392e4847ef10bd52b881fb812f6bc87b8404274291604051908152a280f35b60405162461bcd60e51b815260206004820152600f60248201527f7769746864726177206661696c656400000000000000000000000000000000006044820152606490fd5b60405162461bcd60e51b815260206004820152601260248201527f726563697069656e7420726571756972656400000000000000000000000000006044820152606490fd5b60405162461bcd60e51b815260206004820152600d60248201527f7472656173757279206f6e6c79000000000000000000000000000000000000006044820152606490fd5b5034610a96576020366003190112610a9657602061130e600435612c40565b604051908152f35b5034610a965780600319360112610a965760209054604051908152f35b5034610a965780600319360112610a96576020600254604051908152f35b346115175760603660031901126115175760243560043560443567ffffffffffffffff81116115175761138890369060040161281b565b91805f52600360205260405f20916113ab6001600160a01b0384541615156128d7565b6003830154936113c160ff8660081c1615612923565b67ffffffffffffffff600685015460801c16801590811561162f575b50156115ea57600584019485546115a55760ff6113fa911661323b565b861161156057604051637134591960e01b8152606060048201527f00000000000000000000000000000000000000000000000000000000000000006001600160a01b03169460208280611451606482018789612a75565b33602483015230604483015203815f8a5af19687156115555788925f9861151b575b509087600492550155845f5260096020528260405f2055833b15611517576020956114fc7f2c8264d04b029e11dca208642a2f46f8d53ea554d7eb282cd2e7d8ee1ef4e2f6935f80899860446040518094819363057492b160e41b83528d60048401528c60248401525af1611507575b50604051938493845260408a8501526040840191612a75565b0390a3604051908152f35b5f61151191612704565b5f6114e3565b5f80fd5b91925096506020813d60201161154d575b8161153960209383612704565b810103126115175751958791906004611473565b3d915061152c565b6040513d5f823e3d90fd5b60405162461bcd60e51b815260206004820152601460248201527f6f7574636f6d65206f7574206f662072616e67650000000000000000000000006044820152606490fd5b60405162461bcd60e51b815260206004820152601160248201527f617373657274696f6e2070656e64696e670000000000000000000000000000006044820152606490fd5b60405162461bcd60e51b815260206004820152601460248201527f7265736f6c7574696f6e206e6f742072656164790000000000000000000000006044820152606490fd5b9050421015876113dd565b34611517576020366003190112611517576004356001600160a01b038116809103611517575f52600a602052602060405f2054604051908152f35b34611517576020366003190112611517576116cd600435805f52600560205260405f20905f5260066020526116db6116b96116b360405f2093612bc7565b92612bc7565b604051938493604085526040850190612849565b908382036020850152612849565b0390f35b346115175760203660031901126115175760206116fd600435612b09565b6040519015158152f35b34611517575f3660031901126115175760206040516001600160a01b037f0000000000000000000000000000000000000000000000000000000000000000168152f35b346115175760203660031901126115175760043567ffffffffffffffff81116115175761177b9036906004016127ea565b5f915f5b82811061179157602084604051908152f35b476117a66117a0838686612a22565b35612e86565b15908115916117e4575b506117be575b60010161177f565b92600181018091116117d057926117b6565b634e487b7160e01b5f52601160045260245ffd5b90504714856117b0565b34611517575f3660031901126115175760206040516101008152f35b60803660031901126115175760643567ffffffffffffffff81116115175761183690369060040161281b565b906004355f52600360205260405f209061185b6001600160a01b0383541615156128d7565b60038201549061187160ff8360081c1615612923565b61189367ffffffffffffffff6006850154168015908115611c78575b5061296f565b3415611c33576118a234612e3d565b906118ad82346129bb565b926118b98415156129c8565b6044356024359160ff16916118cd9261302b565b600254926118da84612a14565b600255604051956118ea876126ca565b33875260208701956004358752604088018381526060890186815260808a01602435815260a08b019160443583523661192490878a612a32565b9360c08d0194855260e08d015f90528a5f52600460205260405f209b8d516001600160a01b03166001600160a01b03168d546001600160a01b031916178d555160018d01555160028c01555160038b01555160048a01555160058901555197885167ffffffffffffffff8111611c1f576119a160068a0154612692565b99601f8b11611bd7575b60209a508a90601f8311600114611b3657957f50b83797eb9f23280408bf82ffc4b3e8ef3f985a1c35a481d312a97292bf661b94611a2c8b9c600760e0611aac988f9c9880611a9299899e9b5f92611b2b575b50508160011b915f199060031b1c19161760068501555b0151151591019060ff801983541691151516179055565b875f5260058d52611a4260243560405f20612ad0565b875f5260068d52611a5860443560405f20612ad0565b60088101611a67838254612a68565b905560098101611a788b8254612a68565b90556044359060ff6003602435920154166004358a61311b565b604051918291339760043596604435906024359086612a95565b0390a480611af7575b505f906040516024358152604435858201527febe92afcb6195417c01d45a61232e7d2eb54d24af6a7d8264a9275b448784b86604060043592a4604051908152f35b6040519081527f77c88b90a4c8601c1a0f825332fb02c3b24fdcccde3e6a33e0d286264ad5a8528460043592a38083611ab5565b015190505f806119fe565b9060068b015f52805f20915f5b601f1985168110611bc0575094611a2c8b9c600760e0611aac988f9c9b9880611a92998e997f50b83797eb9f23280408bf82ffc4b3e8ef3f985a1c35a481d312a97292bf661b9e600194601f19811610611ba8575b505050811b016006850155611a15565b01515f1960f88460031b161c191690555f8080611b98565b91928d600181928685015181550194019201611b43565b60068a015f5260205f20601f830160051c81019b60208410611c15575b601f0160051c019a5b8b8110611c0a57506119ab565b5f8155600101611bfd565b909b508b90611bf4565b634e487b7160e01b5f52604160045260245ffd5b60405162461bcd60e51b815260206004820152600e60248201527f7374616b652072657175697265640000000000000000000000000000000000006044820152606490fd5b905042108661188d565b3461151757602036600319011261151757602061130e600435612e86565b34611517575f366003190112611517576020600154604051908152f35b34611517576020366003190112611517576004355f52600360205260a060405f2060068101549060ff600b6007830154920154169067ffffffffffffffff604051938181168552818160401c16602086015260801c166040840152606083015215156080820152f35b602036600319011261151757600435805f52600360205260405f20611d566001600160a01b0382541615156128d7565b611d6a60ff600383015460081c1615612923565b3415611daf57600a01611d7e348254612a68565b9055604051903482527f91758dee72908675339062017bcb5d06559bd068379914954d7a8913d8d0e6fa60203393a3005b60405162461bcd60e51b815260206004820152600f60248201527f72657761726420726571756972656400000000000000000000000000000000006044820152606490fd5b34611517575f3660031901126115175760206040517f00000000000000000000000000000000000000000000000000000000000000008152f35b34611517575f36600319011261151757335f52600b60205260405f20548015611ee857335f52600b6020525f60408120555f80808084335af1611e6f6128a8565b5015611ea3576040519081527fbd2ad6e5989667203292aae122d428c0c184070dc46bc0ec52c438b2a54548c960203392a2005b60405162461bcd60e51b815260206004820152601260248201527f63726561746f7220666565206661696c656400000000000000000000000000006044820152606490fd5b60405162461bcd60e51b815260206004820152600f60248201527f6e6f2063726561746f72206665657300000000000000000000000000000000006044820152606490fd5b34611517576040366003190112611517576004355f52600860205260405f206024355f52602052602060405f2054604051908152f35b60803660031901126115175760243567ffffffffffffffff811161151757611f8f9036906004016127ea565b9060443567ffffffffffffffff811161151757611fb09036906004016127ea565b9160643567ffffffffffffffff811161151757611fd190369060040161281b565b9390926004355f52600360205260405f20611ff76001600160a01b0382541615156128d7565b600381019661200d60ff895460081c1615612923565b61202e67ffffffffffffffff600684015416801590811561248d575061296f565b801594851580612484575b1561243f57602082116123fa5761204f34612e3d565b9761205a89346129bb565b996120668b15156129c8565b6002549761207389612a14565b6002556123e65786156123e6575460ff16935f5b61ffff8116858110156121435790818a8a8f6120fe8c918c6120bc876120b38f9b8f9c61ffff9d612a22565b35968796612a22565b3593816120cb8683819561302b565b875f5260056020526120e08260405f20612ad0565b875f5260066020526120f58360405f20612ad0565b6004358861311b565b60405191825260208201527febe92afcb6195417c01d45a61232e7d2eb54d24af6a7d8264a9275b448784b86604060043592a41661ffff81146117d057600101612087565b5050878a8c888c8760405197612158896126ca565b33895260043560208a01528460408a01528560608a0152813560808a0152833560a08a0152612188368285612a32565b60c08a01525f60e08a0152865f52600460205260405f20976001600160a01b03808b5116166001600160a01b03198a541617895560208a015160018a015560408a015160028a015560608a015160038a015560808a015160048a015560a08a015160058a015560c08a01519889519a67ffffffffffffffff8c11611c1f576122136006830154612692565b9b601f8d1161239e575b60209c508c601f8211600114612317579361229b6122d09460078e9f8f9c9b9996866009977f50b83797eb9f23280408bf82ffc4b3e8ef3f985a1c35a481d312a97292bf661b9d9b60e0945f92611b2b5750508160011b915f199060031b1c19161760068501550151151591019060ff801983541691151516179055565b600881016122aa8b8254612a68565b9055016122b88a8254612a68565b90556040519384933399600435983591359086612a95565b0390a4806122e3575b5050604051908152f35b6040519081527f77c88b90a4c8601c1a0f825332fb02c3b24fdcccde3e6a33e0d286264ad5a8528460043592a380836122d9565b600684015f52805f209c5f5b601f198416811061238757506122d09460078e9f8f9c9b999660018760e0937f50b83797eb9f23280408bf82ffc4b3e8ef3f985a1c35a481d312a97292bf661b9e9c9861229b9860099b601f19811610611ba857505050811b016006850155611a15565b828201518f556001909e019d918f01918f01612323565b600683015f5260205f20601f820160051c81019d602083106123dc575b601f0160051c019c5b8d81106123d1575061221d565b5f81556001016123c4565b909d508d906123bb565b634e487b7160e01b5f52603260045260245ffd5b60405162461bcd60e51b815260206004820152601160248201527f746f6f206d616e79206d696e7465726d730000000000000000000000000000006044820152606490fd5b60405162461bcd60e51b815260206004820152600c60248201527f626164206d696e7465726d7300000000000000000000000000000000000000006044820152606490fd5b50848214612039565b905042108a61188d565b34611517576020366003190112611517576004355f52600460205260405f206001600160a01b038154166001820154916125296002820154916003810154600482015460058301549160ff60076124f060068701612726565b95015416956040519889988952602089015260408801526060870152608086015260a085015261010060c08501526101008401906127c6565b90151560e08301520390f35b34611517575f3660031901126115175760206040516001600160a01b037f0000000000000000000000000000000000000000000000000000000000000000168152f35b34611517575f3660031901126115175760206040516103e88152f35b34611517575f36600319011261151757335f52600a60205260405f20549081156126505750335f52600a6020525f60408120555f80808084335af16125d76128a8565b501561260b576040519081527fbd2ad6e5989667203292aae122d428c0c184070dc46bc0ec52c438b2a54548c960203392a2005b60405162461bcd60e51b815260206004820152600d60248201527f7061796f7574206661696c6564000000000000000000000000000000000000006044820152606490fd5b62461bcd60e51b815260206004820152600960248201527f6e6f207061796f757400000000000000000000000000000000000000000000006044820152606490fd5b90600182811c921680156126c0575b60208310146126ac57565b634e487b7160e01b5f52602260045260245ffd5b91607f16916126a1565b610100810190811067ffffffffffffffff821117611c1f57604052565b6101e0810190811067ffffffffffffffff821117611c1f57604052565b90601f8019910116810190811067ffffffffffffffff821117611c1f57604052565b9060405191825f82549261273984612692565b80845293600181169081156127a45750600114612760575b5061275e92500383612704565b565b90505f9291925260205f20905f915b81831061278857505090602061275e928201015f612751565b602091935080600191548385890101520191019091849261276f565b90506020925061275e94915060ff191682840152151560051b8201015f612751565b805180835260209291819084018484015e5f828201840152601f01601f1916010190565b9181601f840112156115175782359167ffffffffffffffff8311611517576020808501948460051b01011161151757565b9181601f840112156115175782359167ffffffffffffffff8311611517576020838186019501011161151757565b90602080835192838152019201905f5b8181106128665750505090565b8251845260209384019390920191600101612859565b6044359060ff8216820361151757565b67ffffffffffffffff8111611c1f57601f01601f191660200190565b3d156128d2573d906128b98261288c565b916128c76040519384612704565b82523d5f602084013e565b606090565b156128de57565b60405162461bcd60e51b815260206004820152600e60248201527f6d61726b6574206d697373696e670000000000000000000000000000000000006044820152606490fd5b1561292a57565b60405162461bcd60e51b815260206004820152600f60248201527f6d61726b6574207265736f6c76656400000000000000000000000000000000006044820152606490fd5b1561297657565b60405162461bcd60e51b815260206004820152600e60248201527f74726164696e6720636c6f7365640000000000000000000000000000000000006044820152606490fd5b919082039182116117d057565b156129cf57565b60405162461bcd60e51b815260206004820152601860248201527f7374616b652061667465722066656520726571756972656400000000000000006044820152606490fd5b5f1981146117d05760010190565b91908110156123e65760051b0190565b929192612a3e8261288c565b91612a4c6040519384612704565b829481845281830111611517578281602093845f960137010152565b919082018092116117d057565b908060209392818452848401375f828201840152601f01601f1916010190565b9092608092612ab896948352602083015260408201528160608201520191612a75565b90565b80548210156123e6575f5260205f2001905f90565b805468010000000000000000811015611c1f57612af291600182018155612abb565b819291549060031b91821b915f19901b1916179055565b805f52600460205260405f209060018201545f52600360205260405f209160ff600384015460081c1615908115612bb4575b50612bae57805f52600560205260405f20905f52600660205260405f205f9060048354940154915b848110612b735750505050505f90565b612b7d8183612abb565b90549060031b1c8316612b908286612abb565b90549060031b1c14612ba457600101612b63565b5050505050600190565b50505f90565b6001600160a01b0391505416155f612b3b565b90604051918281549182825260208201905f5260205f20925f5b818110612bf657505061275e92500383612704565b8454835260019485019487945060209093019201612be1565b818102929181159184041417156117d057565b8115612c2c570490565b634e487b7160e01b5f52601260045260245ffd5b805f52600460205260405f20906001820154805f52600360205260405f209160ff600384015460081c1615908115612cfc575b8115612ce9575b8115612cd8575b50612cd1575f52600860205260405f2060048201545f5260205260405f2054908115612cd157612ab8926002612cc483600a6008612ccc96015491015490612a68565b910154612c0f565b612c22565b5050505f90565b612ce29150612b09565b155f612c81565b84546001600160a01b0316159150612c7a565b600785015460ff169150612c73565b6001600160a01b037f0000000000000000000000000000000000000000000000000000000000000000163303612df8575f52600960205260405f20548015612db357805f52600360205260405f209115612daa579061275e916003820161010061ff0019825416179055807f6dfc24f0f2fb42e49fb4fa3ffa8abb148cab908a1fb8335b3f128a08b2594af160206004850154604051908152a2613250565b5060055f910155565b60405162461bcd60e51b815260206004820152601160248201527f617373657274696f6e206d697373696e670000000000000000000000000000006044820152606490fd5b60405162461bcd60e51b815260206004820152600b60248201527f6f7261636c65206f6e6c790000000000000000000000000000000000000000006044820152606490fd5b7f0000000000000000000000000000000000000000000000000000000000000000908115612bae5781612e6f91612c0f565b906127100180612710116117d057612ab891612c22565b90815f52600460205260405f206001600160a01b03815416928315612fe6576007820180549460ff8616612fa157600184019081545f52600360205260ff600360405f20015460081c1615612f5c576001600160a01b03926001612ee986612c40565b9860ff191617905586612f29575b5054925416917ff251247842e91ddcbb8408e9b83e4f8cba5b0d669ff7a5e1ae6dad372c3681096020604051878152a4565b5f8080808a855af1612f396128a8565b50612ef7575f52600a60205260405f20612f54878254612a68565b90555f612ef7565b60405162461bcd60e51b815260206004820152601360248201527f6d61726b6574206e6f74207265736f6c766564000000000000000000000000006044820152606490fd5b60405162461bcd60e51b815260206004820152600b60248201527f62657420636c61696d65640000000000000000000000000000000000000000006044820152606490fd5b60405162461bcd60e51b815260206004820152600b60248201527f626574206d697373696e670000000000000000000000000000000000000000006044820152606490fd5b6130379092919261323b565b81156130d65719811661309157191661304c57565b60405162461bcd60e51b815260206004820152601460248201527f6f7574636f6d65206f75747369646520636172650000000000000000000000006044820152606490fd5b60405162461bcd60e51b815260206004820152601160248201527f63617265206f7574206f662072616e67650000000000000000000000000000006044820152606490fd5b60405162461bcd60e51b815260206004820152601260248201527f63617265206d61736b20726571756972656400000000000000000000000000006044820152606490fd5b9161312c909694919695939561323b565b901916945f86805b61321b57506001610100911b116131d657855b808617835f52600760205260405f20815f5260205260ff60405f2054161561318c575b508015613183575f1981019081116117d0578616613147565b50505050915050565b835f52600760205260405f20815f5260205260405f20600160ff19825416179055825f52600860205260405f20905f5260205260405f206131ce858254612a68565b90555f61316a565b60405162461bcd60e51b815260206004820152601460248201527f65787072657373696f6e20746f6f2062726f61640000000000000000000000006044820152606490fd5b5f198101908082116117d0571690600181018091116117d0579080613134565b60ff600191161b5f1981019081116117d05790565b600b8201805460ff811661339b5760019060ff19161790556009820154916103e883028381046103e814841517156117d05761329461271061329b920480956129bb565b5f54612a68565b805f55825f52600860205260405f2060048301545f5260205260405f205415613376575b508215613371575f808080866001600160a01b038654165af16132e06128a8565b501561331e5760206001600160a01b037f01239648514ee3b37718c33c5da8a8c2bec50126d9706a6df3a6afbd05055c0492541693604051908152a3565b60206001600160a01b0382817fdb3816a907d9a78016f52251dfa97b7095e95f1b8488b517f3f9be6f4d399d9d9454165f52600b835260405f20613363878254612a68565b9055541693604051908152a3565b505050565b6133939061338d6008840154600a85015490612a68565b90612a68565b5f555f6132bf565b5050505056","linkReferences":{}},"methodIdentifiers":{"BPS_DENOMINATOR()":"e1a45218","CREATOR_FEE_SHARE_BPS()":"03394db2","MAX_MATCHED_OUTCOMES()":"58b6fa4d","assertionIdToMarketId(bytes32)":"c79fdaf9","assertionResolvedCallback(bytes32,bool)":"f1b156b2","betFeeBps()":"3eadd53c","betMinterms(uint256)":"76c1cb7b","bets(uint256)":"22af00fa","claimBet(uint256)":"4df86c43","claimBets(uint256[])":"599d443b","claimCreatorFees()":"351fee46","claimPendingPayout()":"02a18a41","claimablePayout(uint256)":"9e0bd808","createMarket(string,string,uint8)":"ca760338","createTimedMarket(string,string,uint8,uint64,uint64,uint64)":"f629713f","creationFee()":"dce0b4e4","fundMarketRewards(uint256)":"3ed29d6d","isWinningBet(uint256)":"6662e4be","marketLifecycle(uint256)":"3f37bcb2","markets(uint256)":"b1283e77","nextBetId()":"9aca2792","nextMarketId()":"406ef2ef","optimisticOracle()":"22302922","pendingCreatorFees(address)":"c598b2f9","pendingPayouts(address)":"784712f2","placeBet(uint256,uint256,uint256,string)":"4ed52c2f","placeBetMinterms(uint256,uint256[],uint256[],string)":"230c7fd7","proposeResolution(uint256,uint256,string)":"81d99c31","treasury()":"61d027b3","treasuryFeeBalance()":"9be7761f","winningStakeByOutcome(uint256,uint256)":"27552813","withdrawTreasuryFees(address)":"a2d169be"},"id":32}